:020000041000EA
:1000000000800110B1010010790100107B01001087
:100010007D0100107F010010810100100000000030
:10002000000000000000000000000000830100103C
:1000300085010010000000008701001089010010F8
:10004000AD01001000000000AD0100100000000034
:1000500000000000AD010010AD010010AD01001066
:10006000AD010010AD010010AD010010AD01001098
:10007000AD010010AD010010AD010010AD01001088
:10008000AD010010AD010010AD010010AD01001078
:1000900000000000AD010010AD010010AD01001026
:1000A000C902001031030010AD010010AD010010B5
:1000B000AD010010AD010010AD010010AD01001048
:1000C000AD010010AD010010AD010010AD01001038
:1000D000AD010010AD010010AD010010AD01001028
:1000E000AD010010AD010010AD010010AD01001018
:1000F0000000000000000000AD010010AD01001084
:1001000000000000AD01001000000000AD01001073
:10011000AD010010CC260010CC26001034010000E8
:10012000CC2600100000081000000000CC260010B3
:100130000000002000000000CC26001000800020FD
:1001400000000000CC26001000C0002000000000CD
:100150000028001014020000000008100000000039
:1001600000000020000000000080002000000000CF
:1001700000C0002000000000FEE7FEE7FEE7FEE70B
:10018000FEE7FEE7FEE7FEE7FEE710B5002302E02C
:100190001C585C5004339342FAD310BD00231A4616
:1001A00001E01A5004338B42FBD37047FEE7000096
:1001B00038B572B6164B174A1A60174A5A60174A72
:1001C0004FF0FF33136053609360D360136153614A
:1001D0009361D36162B6124C124D04E094E80700BB
:1001E0000C34FFF7D2FFAC42F8D305E094E80300EB
:1001F0000834FFF7D3FF00E00B4DAC42F6D30B4AB7
:100200000B4B1A6001F002FF01F024FFFEE700BF74
:10021000003105400000DF10FFF7DF0080E200E062
:1002200014010010500100107801001000000010AF
:1002300008ED00E080B483B000AF0346FB714FF4DB
:100240006143CEF2000397F907204FEA5212F97981
:1002500001F01F014FF0010000FA01F143F82210F4
:1002600007F10C07BD4680BC704700BF80B483B067
:1002700000AF03463960FB7197F90730002B10DAA5
:100280004FF46D43CEF20003FA7902F00F02A2F1AF
:1002900004013A68D2B24FEA0212D2B25B181A765F
:1002A0000DE04FF46143CEF2000397F907103A686E
:1002B000D2B24FEA0212D2B25B1883F8002307F1E0
:1002C0000C07BD4680BC704780B584B000AF4FF4CA
:1002D0008053C4F208039B68FB60FB6803F00E03C5
:1002E000BB60BB68062B11D14FF48053C4F20803E6
:1002F0005B697B607B6803F09E037B607B68002BFF
:1003000004D07B68DBB2184600F010F9BB68042B00
:1003100002D0BB680C2B01D100F03EF8BB68022B69
:1003200001D100F083F807F11007BD4680BD00BF82
:1003300080B584B000AF4FF48053C4F208039B68CB
:10034000FB60FB6803F00E03BB60BB68062B11D19A
:100350004FF48053C4F208035B697B607B6803F051
:100360009E037B607B68002B04D07B68DBB2184661
:1003700000F0DCF8BB68042B02D0BB680C2B01D169
:1003800000F00AF8BB68022B01D100F04FF807F12A
:100390001007BD4680BD00BF80B582B000AF00E051
:1003A00000BF07F103034FF48050C4F20800194660
:1003B0004FF001024FF0000301F082FB03467B6027
:1003C0007B68002B2CD042F60003C1F20003DB68EF
:1003D0001A4642F60003C1F200039B6803F10103D1
:1003E0005340DBB2002BDBD042F60003C1F2000326
:1003F0009B681946FA7842F60003C1F200035B18C5
:1004000083F8102142F60003C1F200039B6803F158
:100410000103DAB242F60003C1F200039A60BFE7BB
:1004200000BF07F10807BD4680BD00BF80B500AF23
:100430004FF48050C4F208004FF001014FF0000269
:1004400001F0A8FB00BF4FF48050C4F2080001F097
:1004500085FC0346012BF6D022E042F60003C1F2F0
:1004600000035B681A46304BD3184FF48050C4F237
:10047000080019464FF001024FF0000301F09CFA0A
:100480000346002B1CD042F60003C1F200035B6858
:1004900003F10103DAB242F60003C1F200035A602D
:1004A00042F60003C1F200031B681A4642F600033D
:1004B000C1F200035B685340DBB2002BCDD100E0FA
:1004C00000BF42F60003C1F200031B681A4642F661
:1004D0000003C1F200035B685340DBB2002B11D173
:1004E0004FF48050C4F208004FF001014FF00002B9
:1004F00001F050FB42F61023C1F200034FF000025E
:100500001A7010E042F61023C1F200034FF001020E
:100510001A704FF48050C4F208004FF001014FF000
:10052000010201F037FB80BD1028001080B485B0B7
:1005300000AF0346FB71FB79FB73FCE780B586B027
:1005400000AFF860B9601346FB71BB687B614FF088
:1005500000033B61F8684FF001014FF0000201F029
:1005600019FB26E042F60003C1F200031B6819469E
:100570007B691A7842F60003C1F200035B181A7413
:100580007B6903F101037B6142F60003C1F20003C2
:100590001B6803F10103DAB242F60003C1F2000363
:1005A0001A603B6903F101033B61FB7903F1FF33FF
:1005B000FB71FB79002B10D042F60003C1F200035F
:1005C0005B681A4642F60003C1F200031B6803F1A0
:1005D00001035340DBB2002BC4D142F61023C1F219
:1005E00000031B78DBB2002B02D1FFF71FFF06E0F0
:1005F000F8684FF001014FF0010201F0CBFA3B69BE
:10060000184607F11807BD4680BD00BF80B586B00B
:1006100000AFF860B9601346FB71BB687B614FF0B7
:1006200000033B61F8684FF000014FF0000201F059
:10063000B1FA28E042F60003C1F20003DB681A4673
:1006400042F60003C1F200039B1893F81031DAB2AE
:100650007B691A707B6903F101037B6142F6000339
:10066000C1F20003DB6803F10103DAB242F60003D2
:10067000C1F20003DA603B6903F101033B61FB79DE
:1006800003F1FF33FB71FB79002B0ED042F6000320
:10069000C1F200039B681A4642F60003C1F2000350
:1006A000DB685340DBB2002BC4D1F8684FF0000187
:1006B0004FF0010201F06EFA3B69184607F1180786
:1006C000BD4680BD80B584B000AF4FF0CD03FB6068
:1006D0004FF000037B6042F2CC63C1F20003BB60C9
:1006E00013E0FB68DBB24FF48050C4F20800B96835
:1006F0001A46FFF723FF03467B60BA687B68D3186E
:10070000BB60FA687B68D31AFB60FB68002BE8D1FA
:1007100007F11007BD4680BD80B588B000AF01F07D
:1007200075FC00F0EDF84FF006004FF004014FF0BB
:1007300058024FF0020300F023FD4FF006004FF087
:1007400005014FF058024FF0020300F019FD07F1C8
:100750001003184601F09EF807F110034FF4805083
:10076000C4F20800194600F0A7FE07F10C03184672
:1007700001F0CAFB07F10C034FF48050C4F20800EB
:10078000194601F001FB4FF48050C4F208004FF00D
:10079000010101F0D3FB4FF48050C4F208004FF088
:1007A00000014FF0010201F0F5F94FF48050C4F25E
:1007B00008004FF002014FF0010201F0EBF942F6A0
:1007C0001023C1F200034FF000021A7042F600033A
:1007D000C1F200034FF000029A6042F60003C1F23A
:1007E00000034FF00002DA6042F60003C1F200039A
:1007F0004FF000021A6042F60003C1F200034FF00E
:1008000000025A604FF018004FF00901FFF72EFD6B
:100810004FF01800FFF70EFDFFF754FF4FF00003F5
:10082000FB7249E04FF00003BB610BE03B464FF425
:100830008050C4F2080019464FF00A02FFF7E6FEA6
:100840000346BB61BB69002BF0D04FF00003FB6196
:100850002EE03A46FB69D3181B781B2B0FD14FF4BF
:100860008050C4F2080042F29C71C1F200014FF0C6
:100870001A02FFF763FE4FF00103FB7214E03A46E1
:10088000FB69D3181B78722B02D1FFF71BFF0BE01B
:100890003A46FB69D3184FF48050C4F20800194659
:1008A0004FF00102FFF74AFEFB6903F10103FB6110
:1008B000FA69BB699A42CCD3FB7ADBB2002BB1D088
:1008C00000BF4FF48050C4F2080001F047FA03461D
:1008D000002BF6D14FF48050C4F2080000F0A8FFBE
:1008E000FEE700BF80B500AFFFF716FF03461846CE
:1008F00080BD00BF80B483B000AF78603960FEE790
:1009000080B500AF4FF4D850C0F2B70000F0DCF96A
:100910004FF006004FF0010100F014FA4FF006000E
:100920004FF0090100F00CFB4FF0060000F08AFBCD
:100930004FF009004FF0010100F004FA4FF00900F8
:100940004FF0150100F0FCFA00F006F94FF000033B
:10095000184680BD80B485B000AF0346FB71FB79BB
:10096000252B05D9FB79002B02D14FF00403ECE0D5
:10097000F97942F22C52C1F200020B464FEA83038E
:100980005B184FEA4303D3181B792D2B6BD0F979F1
:1009900042F22C52C1F200020B464FEA83035B186D
:1009A0004FEA4303D3181B791A4642F2D013C1F21F
:1009B000000333F812301BB203F1804303F5A02388
:1009C0001B6803F070634FEA1363FB60F97942F22E
:1009D0002C52C1F200020B464FEA83035B184FEA28
:1009E0004303D3181B791A4642F2D013C1F2000315
:1009F00033F812301BB203F1804303F5A0231B68C8
:100A000003F00103DBB2002B02D04FF000039CE0A7
:100A1000F97942F22C52C1F200020B464FEA8303ED
:100A20005B184FEA4303D318DB88002B00F0868065
:100A3000F97942F22C52C1F200020B464FEA8303CD
:100A40005B184FEA4303D318DB881A464FF00403C0
:100A5000C4F20503D3181B6803F00103002B6DD10A
:100A60004FF0000371E0F97942F22C52C1F200021A
:100A70000B464FEA83035B184FEA4303D3181B78F6
:100A80001A4642F2D013C1F2000333F812301BB2FF
:100A900003F1804303F5A0231B6803F00103DBB2DD
:100AA000002B02D04FF000034FE0F97942F22C52B4
:100AB000C1F200020B464FEA83035B184FEA43037F
:100AC000D3181B781A4642F2D013C1F2000333F850
:100AD00012301BB203F1804303F5A0231B6803F01F
:100AE00070634FEA1363FB60F97942F22C52C1F252
:100AF00000020B464FEA83035B184FEA4303D31807
:100B00005B88002B1AD0F97942F22C52C1F2000214
:100B10000B464FEA83035B184FEA4303D3185B8805
:100B20001A464FF00403C4F20503D3181B6803F000
:100B30000103002B02D14FF0000306E042F2B8732C
:100B4000C1F20003FA6853F82230184607F114077F
:100B5000BD4680BC704700BF80B485B000AF4FF485
:100B60004053C4F204035B6803F00203002B10D06F
:100B70004FF44053C4F204035B6803F00803002BF6
:100B800007D142F2B873C1F200034FF400421A6079
:100B900006E042F2B873C1F200034FF000021A609F
:100BA0004FF00003C4F205035B6C03F00203002B5B
:100BB0002CD14FF00003C4F205031B6C03F00103BA
:100BC000DBB2002B22D04FF00003C4F205035B6CB4
:100BD00003F070634FEA1363BB6042F2B873C1F273
:100BE0000003BA6853F822204FF00003C4F2050353
:100BF0005B6C4FEA1343DBB203F1010303FB02F228
:100C000042F2B873C1F200035A6206E042F2B873CE
:100C1000C1F200034FF000025A624FF00C03FB6078
:100C20004AE042F2D013C1F20003FA6833F81230FE
:100C30001BB27B607B6803F1804303F5A0231B6834
:100C400003F00203002B2AD17B6803F1804303F5F4
:100C5000A0231B6803F070634FEA1363BB607B68DB
:100C600003F1804303F5A0231B684FEA9303DBB233
:100C70003B603B6803F101033B6042F2B873C1F291
:100C80000003BA6853F822203B68B2FBF3F142F24A
:100C9000B873C1F20003FA6843F8221008E042F288
:100CA000B873C1F20003FA684FF0000143F8221054
:100CB000FB6803F10103FB60FB68102BB1D907F15E
:100CC0001407BD4680BC704780B483B000AF786025
:100CD0007A684EF2BF13C0F2E4039A420CD84FF088
:100CE0000003C4F205034FF00002C4F2050292694A
:100CF00022F004029A6116E07A6847F63F03C0F2D8
:100D00007D139A420CD84FF00003C4F205034FF054
:100D10000002C4F20502926942F004029A6102E004
:100D20004FF0050307E042F2B873C1F200037A689E
:100D30009A614FF00003184607F10C07BD4680BCCE
:100D4000704700BF80B584B000AF03463960FB71C7
:100D5000FB79002B43D13B68002B18D04FF4405354
:100D6000C4F204034FF44052C4F20402526822F069
:100D70000C025A604FF44053C4F204034FF4405243
:100D8000C4F20402526842F003025A6017E04FF4C2
:100D90004053C4F204034FF44052C4F204025268B8
:100DA00022F003025A604FF44053C4F204034FF49C
:100DB0004052C4F20402526842F008025A604FF0F6
:100DC0000003FB6003E0FB6803F10103FB60FA68CA
:100DD00044F23F23C0F20F039A42F4DDA8E0FB790E
:100DE000022B0AD14FF00C004FF000014FF010021F
:100DF0004FF0030300F0C4F99AE0FB79032B0AD10A
:100E00004FF001004FF013014FF010024FF00003BC
:100E100000F0B6F98CE0FB79042B00F08980FB79B7
:100E2000052B00F08580FB79062B2BD13B68002B2E
:100E30000CD14FF00003C4F205034FF00002C4F2DE
:100E40000502926942F001029A610BE04FF0000343
:100E5000C4F205034FF00002C4F20502926922F0C9
:100E600001029A614FF00003FB6003E0FB6803F1AD
:100E70000103FB60FA6844F23F23C0F20F039A4279
:100E8000F4DD55E0FA7942F2D013C1F2000333F8F1
:100E900012301BB2BB60BB68B3F1FF3F02D14FF011
:100EA000020347E03B68002B0FD1BB6803F180438E
:100EB00003F5A0231A46BB6803F1804303F5A02382
:100EC0001B6843F00103136032E0BB6803F1804309
:100ED00003F5A0231A46BB6803F1804303F5A02362
:100EE0001B6823F001031360FB79072B09D100BFB6
:100EF0004FF00003C4F20503DB6903F00103002B8C
:100F0000F6D0FB79092B13D100BF4FF00003C4F2D8
:100F100005031B6C03F00103002BF6D04FF0000318
:100F2000C4F205031B6C03F00103002B00D1FEE7A4
:100F30004FF00003184607F11007BD4680BD00BF03
:100F400080B485B000AF02460B46FA71BB71FB79E5
:100F5000102B02D94FF003036DE0BB79062B68D943
:100F6000BB79252B65D8F979B87942F22C22C1F2E8
:100F700000020B464FEA43035B184FEA0311C91AFC
:100F80000B18D3181B78002B50D0FA7942F2D013EB
:100F9000C1F2000333F812301BB2FB60FB68B3F1FF
:100FA000FF3F15D0BB79102B12D8BB79062B0FD978
:100FB000FB6803F1804303F5A0231B684FEA13632A
:100FC00003F00F02BB799A4202D14FF0010332E0E5
:100FD000BA7942F2D013C1F2000333F812301BB2D7
:100FE000FB60FB68B3F1FF3F02D14FF0020322E048
:100FF000FB6803F1804303F5A0231B68BB60BB685B
:1010000023F07063BB60FB794FEA03631A46BB6849
:10101000134343F40063BB60FB6803F1804303F5B3
:10102000A023BA681A604FF0000304E04FF00303F6
:1010300001E04FF00203184607F11407BD4680BCDB
:10104000704700BF80B489B000AF78604FF00003F4
:101050007B614FF000033B614FF00003FB614FF0F9
:101060000103BB614FF00003C4F205035B6C03F0A6
:1010700070634FEA1363FB6042F2B873C1F200037E
:10108000FA6853F82230BB60BB687A6802FB03F34E
:10109000BB607B6803F1FF337B614FF00002C4F259
:1010A00005024FF00003C4F205035B6C19464CF6D1
:1010B0003D43CFF600730B405364BA6845F6FF63B7
:1010C000C0F64C139A422ED807E0FB6903F10103E6
:1010D000FB61BB694FEA4303BB61BB69BA6802FBB2
:1010E00003F34FEA430245F6FF63C0F64C139A42FE
:1010F000EBD94FF00003C4F205034FF00002C4F235
:101100000502526C11467A694FEA02403A694FEA89
:1011100002321043FA694FEA022202430A4342F0C4
:1011200040025A6423E0BA684CF6FF73C1F21233EE
:101130009A4219D84FF00003C4F205034FF00002A1
:10114000C4F20502526C11467A694FEA02403A69CC
:101150004FEA02321043FA694FEA022202430A437D
:1011600042F0C0025A6402E04FF0040301E04FF085
:101170000003184607F12407BD4680BC704700BF36
:1011800080B485B000AFF871B9717A713B714FF4DA
:10119000C043C4F20803FB60FB794FEA4312BB79FA
:1011A000D3184FEA8303002B01DA03F103034FEA5C
:1011B000A3034FEA8303FA68D31879793A798A1836
:1011C0001A6007F11407BD4680BC70472DE9B04F87
:1011D00096B000AF786139614FF0000387F857305F
:1011E0007A694FF48053C4F208039A4205D14FF054
:1011F0002000FFF7AFFB03463B657A694FF40053CD
:10120000C4F208039A4205D14FF02100FFF7A2FB78
:1012100003463B657A694FF48053C4F20C039A424B
:1012200005D14FF02200FFF795FB03463B657A6935
:101230004FF40053C4F20C039A4205D14FF023003F
:10124000FFF788FB03463B654FF0FF33BB624FF06F
:1012500000037B644FF000033B644FF000024FF04B
:101260000003C7E90C234FF00103BB6472E04FF0A9
:101270000003FB6461E0396D0A464FF000034FEA5A
:1012800012114FEA037941EA09094FEA0278B96C71
:101290000A464FF0000302FB09F008FB03F1411876
:1012A000A8FB0223C9180B46B86CF96C41183869C1
:1012B00000FB01F10C464FF000051046194622468E
:1012C0002B4600F0C9FE02460B46C7E908233B6ADD
:1012D000FB627B6A1B46BB604FF00001F960BB6894
:1012E000FB63FB6AB3F1004F07D9FB6AC3F100034C
:1012F000FB62FB6B03F10103FB63FB6B002B17D05D
:10130000FB6BB3F5803F13D8FA6ABB6A9A4210D2DE
:10131000FB6ABB62F96B0A464FF00003C7E90C2376
:10132000FB6C7B64BB6C3B64BB6A002B0AD000E0A7
:1013300000BFFB6C03F10103FB64FA6CBB6C9A42C7
:1013400099D300E000BFBB6A002B07D0BB6C03F150
:101350000103BB64BB6C0F2B89D900E000BFD7E948
:101360000C2352EA030102D14FF000039EE03B6DD3
:101370004FEA13133A6C02FB03F318464FF00001D7
:101380003A6C7B6CD41822464FF000033C6B03FB95
:1013900004F57C6B02FB04F42C193D6BA5FB0223C6
:1013A000E418234600F058FE02460B461346FB6144
:1013B0003A69FB699A4204D93A69FB69D31ABB625C
:1013C00003E0FA693B69D31ABB62BB6A4FF064025F
:1013D00002FB03F23B69B2FBF3F3BB62BB6A022B75
:1013E00062D87A694FF40053C4F208039A422DD1AF
:1013F0007B69DB6843F080027B69DA607B6B4FEAD4
:1014000003633A6B4FEA12223A603A681A433A6031
:101410007B6B4FEA13237B603B68DAB27B695A60CF
:101420003B6BDAB27B691A607B69DB6803F07F0291
:101430007B69DA603B6C4FEA0313DAB27B6C03F032
:101440000F031343DAB27B699A6229E07B69DB6898
:1014500043F080027B69DA607B6B4FEA03633A6B8F
:101460004FEA122A43EA0A0A7B6B4FEA132B5346D0
:10147000DAB27B695A603B6BDAB27B691A607B69CE
:10148000DB6803F07F027B69DA603B6C4FEA031391
:10149000DAB27B6C03F00F031343DAB27B699A6212
:1014A0004FF0010387F8573097F85730184607F187
:1014B0005807BD46BDE8B08F80B584B000AF7860F6
:1014C00039607A684FF48053C4F208039A421CD002
:1014D0007A684FF40053C4F208039A4215D07A6830
:1014E0004FF48053C4F20C039A420ED07A684FF442
:1014F0000053C4F20C039A4207D042F2B460C1F226
:1015000000004FF0D301FFF7F5F93B685B79002B42
:1015100013D03B685B79012B0FD03B685B79022BC2
:101520000BD03B685B79032B07D042F2B460C1F269
:1015300000004FF0D401FFF7DDF93B689B79002BE9
:101540000BD03B689B79012B07D042F2B460C1F20B
:1015500000004FF0D501FFF7CDF93B681B79002B58
:1015600017D03B681B79012B13D03B681B79022BEA
:101570000FD03B681B79032B0BD03B681B79042BE6
:1015800007D042F2B460C1F200004FF0D601FFF77D
:10159000B1F97A684FF48053C4F208039A4205D136
:1015A0004FF006004FF02101FFF7CAFC7A684FF4B4
:1015B0000053C4F208039A4205D14FF009004FF0DE
:1015C0002201FFF7BDFC7A684FF48053C4F20C038C
:1015D0009A4205D14FF006004FF02301FFF7B0FC0F
:1015E0007A684FF40053C4F20C039A4205D14FF0CD
:1015F00006004FF02401FFF7A3FC7A684FF4005374
:10160000C4F208039A4244D17B684FF007029A6003
:101610007B684FF000029A6002E07B681B68FB6009
:101620007B685B6903F00103DBB2002BF5D17B68BB
:101630004FF080021A6300BF7B685B6903F02003F0
:10164000002BF9D07B684FF000021A637B684FF0E3
:1016500000025A607B684FF00002DA607B684FF04E
:1016600000021A627B684FF000021A617B684FF03B
:101670000002DA647B684FF000025A657B684FF025
:1016800000021A657B689B69FB607B685B69FB6095
:1016900048E07B684FF007029A607B684FF00002D9
:1016A0009A6002E07B681B68FB607B685B6903F003
:1016B0000103DBB2002BF5D17B684FF00102DA6544
:1016C00000BF7B685B6903F02003002BF9D07B68C7
:1016D0004FF00002DA657B684FF000025A607B68C9
:1016E0004FF00002DA607B684FF000021A627B68FC
:1016F0004FF000021A647B684FF000029A647B6826
:101700004FF000029A657B684FF00002DA647B6854
:101710004FF000025A657B684FF000021A657B6843
:101720005B69FB607A684FF40053C4F20C039A4281
:1017300003D17B684FF000025A623B681B687868EF
:101740001946FFF743FD7A684FF40053C4F20803CB
:101750009A4205D17B68DB6803F0C003FB6004E0BC
:101760007B68DB6803F0C003FB603B685B79012B9F
:1017700004D0022B07D0002B0FD009E0FB6843F008
:101780000103FB600AE0FB6843F00203FB6005E035
:10179000FB6843F00303FB6000E000BF3B681B797C
:1017A000002B25D0FB6843F00803FB603B681B79E6
:1017B00003F1FF33032B1AD801A252F823F000BF24
:1017C000EF170010D1170010DB170010E5170010FD
:1017D000FB6843F01003FB600AE0FB6843F0200362
:1017E000FB6005E0FB6843F03003FB6000E000BFF6
:1017F0003B689B79012B04D1FB6843F00403FB6039
:1018000000E000BF7A684FF40053C4F208039A4224
:1018100005D1FB68DBB21A467B68DA6004E0FB683E
:10182000DBB21A467B68DA6007F11007BD4680BD5F
:1018300080B582B000AF78607A684FF48053C4F20C
:1018400008039A421CD07A684FF40053C4F208038C
:101850009A4215D07A684FF48053C4F20C039A422E
:101860000ED07A684FF40053C4F20C039A4207D0AA
:1018700042F2B460C1F2000040F2AF11FFF73AF853
:1018800078684FF0000100F059FB07F10807BD46EA
:1018900080BD00BF80B483B000AF78607B684FF438
:1018A00016521A607B684FF003025A717B684FF042
:1018B00000021A717B684FF000029A7107F10C0761
:1018C000BD4680BC704700BF80B582B000AF786075
:1018D0000B46FB707A684FF48053C4F208039A42B7
:1018E0001CD07A684FF40053C4F208039A4215D012
:1018F0007A684FF48053C4F20C039A420ED07A688F
:101900004FF40053C4F20C039A4207D042F2B46081
:10191000C1F2000040F2F311FEF7ECFF7A684FF4D9
:101920000053C4F208039A4203D1FA787B681A6024
:1019300002E0FA787B681A6007F10807BD4680BDAF
:1019400080B582B000AF78607A684FF48053C4F2FB
:1019500008039A421CD07A684FF40053C4F208037B
:101960009A4215D07A684FF48053C4F20C039A421D
:101970000ED07A684FF40053C4F20C039A4207D099
:1019800042F2B460C1F200004FF40371FEF7B2FFFF
:101990007A684FF40053C4F208039A4203D17B687B
:1019A0001B68DBB202E07B681B68DBB2184607F1FC
:1019B0000807BD4680BD00BF80B58AB000AFF860A3
:1019C000B9607A60FB70BB687B617B687B62FB7887
:1019D000012B3DD14FF000033B6235E04FF0FF3368
:1019E000FB6106E0FB69002B0AD0FB6903F1FF33C2
:1019F000FB61FB685B6903F02003002BF2D000E081
:101A000000BFFB69002B51D04FF01003BB6115E004
:101A10007B691B787A6902F101027A61F8681946DC
:101A2000FFF752FFBB6903F1FF33BB617B6A03F130
:101A3000FF337B623B6A03F101033B62BB69002B0E
:101A400002D07B6A002BE3D17B6A002BC6D130E049
:101A50004FF000033B6225E0FB685B6903F0200365
:101A6000002B25D04FF01003BB6115E07B691B787C
:101A70007A6902F101027A61F8681946FFF724FFDA
:101A80007B6A03F1FF337B62BB6903F1FF33BB6108
:101A90003B6A03F101033B62BB69002B02D07B6A06
:101AA000002BE3D17B6A002BD6D102E000BF00E01F
:101AB00000BF3B6A184607F12807BD4680BD00BF3E
:101AC00080B588B000AFF860B9607A60FB70BB6821
:101AD0003B617B68FB61FB78012B30D14FF0000349
:101AE000BB6128E04FF0FF337B6106E07B69002B90
:101AF0000AD07B6903F1FF337B61FB685B6903F00C
:101B00000103002BF2D000E000BF7B69002B37D02F
:101B1000F868FFF715FF03461A463B691A703B69E0
:101B200003F101033B61FB6903F1FF33FB61BB6917
:101B300003F10103BB61FB69002BD3D123E04FF01C
:101B40000003BB6118E0FB685B6903F00103002B35
:101B500018D0F868FFF7F4FE03461A463B691A707E
:101B60003B6903F101033B61BB6903F10103BB6105
:101B7000FB6903F1FF33FB61FB69002BE3D102E05A
:101B800000BF00E000BFBB69184607F12007BD4653
:101B900080BD00BF80B584B000AF786013460A46B0
:101BA000FA70BB707A684FF48053C4F208039A420B
:101BB0001CD07A684FF40053C4F208039A4215D03F
:101BC0007A684FF48053C4F20C039A420ED07A68BC
:101BD0004FF40053C4F20C039A4207D042F2B460AF
:101BE000C1F2000040F2C721FEF784FEBB78002B53
:101BF0000AD0BB78012B07D042F2B460C1F20000DA
:101C00004FF43271FEF776FEFB78062B2CD801A23A
:101C100052F823F0311C0010391C0010411C001038
:101C2000491C0010511C0010591C0010611C0010B0
:101C30004FF00103FB6017E04FF00203FB6013E07D
:101C40004FF00403FB600FE04FF00803FB600BE074
:101C50004FF08003FB6007E04FF48073FB6003E00C
:101C60004FF40073FB6000BF7A684FF40053C4F276
:101C700008039A421DD1FB78002B31D0FB78012B51
:101C80002ED0FB78022B2BD0FB78052B28D0FB78AD
:101C9000062B25D0FB78032B22D0FB78042B1FD0FA
:101CA00042F2B460C1F200004FF43971FEF722FE37
:101CB00016E0FB78002B13D0FB78012B10D0FB78BB
:101CC000022B0DD0FB78052B0AD0FB78062B07D012
:101CD00042F2B460C1F200004FF43A71FEF70AFE1E
:101CE000BB78012B16D17A684FF40053C4F2080375
:101CF0009A4207D17B685B681A46FB681A437B6887
:101D00005A6027E07B685B681A46FB681A437B6869
:101D10005A601FE07A684FF40053C4F208039A42F5
:101D20000CD17B685B681A46FB686FEA03031A40B4
:101D300040F28F3313407A6853600BE07B685B6836
:101D40001A46FB686FEA03031A4040F20733134058
:101D50007A68536007F11007BD4680BD80B483B038
:101D600000AF78607B685B6903F04003002B02D012
:101D70004FF0000301E04FF00103184607F10C0794
:101D8000BD4680BC704700BF80B584B000AF7860AE
:101D900039604FF00003FB737A684FF48053C4F24C
:101DA00008039A421CD07A684FF40053C4F2080327
:101DB0009A4215D07A684FF48053C4F20C039A42C9
:101DC0000ED07A684FF40053C4F20C039A4207D045
:101DD00042F2B460C1F200004FF45171FEF78AFD87
:101DE0003B68DB78002B13D03B68DB78012B0FD0EE
:101DF0003B68DB78022B0BD03B68DB78032B07D0EA
:101E000042F2B460C1F2000040F24531FEF772FDCB
:101E10003B689B78002B0BD03B689B78012B07D04D
:101E200042F2B460C1F2000040F24631FEF762FDBA
:101E30003B681B78002B0BD03B681B78012B07D02D
:101E400042F2B460C1F2000040F24731FEF752FDA9
:101E50003B685B78002B0BD03B685B78012B07D08D
:101E600042F2B460C1F200004FF45271FEF742FD3D
:101E7000FB7B43F00103FB733B68DB78012B04D051
:101E8000022B07D0002B0FD009E0FB7B43F040036F
:101E9000FB730AE0FB7B63F07F03FB7305E0FB7BD6
:101EA00063F03F03FB7300E000BF3B685B78012BEE
:101EB00003D1FB7B43F00403FB733B681B78012BCE
:101EC00003D1FB7B43F00203FB733B689B78012B40
:101ED00003D1FB7B43F00803FB737A684FF4005394
:101EE000C4F208039A4205D1FB7B03F0CF027B6862
:101EF0009A6004E0FB7B03F0CF027B689A6007F1F5
:101F00001007BD4680BD00BF80B483B000AF7860CD
:101F10007B684FF000029A707B684FF00002DA7025
:101F20007B684FF001021A707B684FF001025A7013
:101F300007F10C07BD4680BC704700BF80B582B07A
:101F400000AF78600B46FB707A684FF48053C4F2A0
:101F500008039A421CD07A684FF40053C4F2080375
:101F60009A4215D07A684FF48053C4F20C039A4217
:101F70000ED07A684FF40053C4F20C039A4207D093
:101F800042F2B460C1F200004FF47871FEF7B2FC87
:101F9000FB78002B0AD0FB78012B07D042F2B4600B
:101FA000C1F2000040F2E131FEF7A4FCFB78012B06
:101FB00014D17A684FF40053C4F208039A4206D150
:101FC0007B681B6B43F080027B681A631AE07B68B6
:101FD000DB6D43F001027B68DA6513E07A684FF449
:101FE0000053C4F208039A4206D17B681B6B7B68DE
:101FF0004FF000021A6305E07B68DB6D7B684FF0F1
:102000000002DA6507F10807BD4680BD80B500AF64
:1020100042F2FC73C1F200034FF4D852C0F2B7028F
:102020001A604FF46D43CEF200039B68B3F1E05F9A
:102030000DD14FF4A043C4F200034FF4A042C4F208
:102040000002D2F8002242F40022C3F80022FEF778
:1020500057FC80BDFEF746BC5FF0000C30B51C009D
:1020600022D112006FD0914206D3054608460021C6
:1020700000F06FF80446284600F06BF80A46214647
:10208000BDE830401CF0404F08BF704703D54942BF
:10209000404261F100015FEA8C0C38BF70475B423F
:1020A000524263F10003704742D41C0C04BF1B046E
:1020B0000CF1100C13F07F4F04BF1B020CF1080C45
:1020C00013F0704F04BF1B010CF1040C13F0404FD0
:1020D00004BF0CF1020C5FEA83035CBF0CF1010C3E
:1020E0005B00CCF1200E22FA0EF4234302FA0CF22C
:1020F00000FA0CF520FA0EF001FA0CF4204321FA54
:102100000EF114461A4600F024F8A4FB0023AA1A84
:1021100071EB03033CBF1B190138CCF1200E22FAEE
:102120000CF203FA0EF4224323FA0CF30021A7E782
:10213000821A71EB03033CBF02460B464FF00001CD
:1021400041F100009CE700200021BDE8304000F094
:102150003DB80423B1EB122F09D2090241EA106104
:102160000002013B08BF7047B1EB122FF5D30018F6
:10217000494134BF9142891A4041494134BF91429B
:10218000891A4041494134BF9142891A404149412D
:1021900034BF9142891A4041494134BF9142891A62
:1021A0004041494134BF9142891A4041494134BFBD
:1021B0009142891A4041494134BF9142891A4041B4
:1021C000A3F1010313F00F0FD2D170477047000045
:1021D000FFFFFFFFFFFFFFFFFFFFFFFF18002000D3
:1021E00030004400FFFFFFFF48004C005000540047
:1021F00058005C006000FFFF68006C007000FFFF8B
:1022000078007C008000840088008C00900094009E
:1022100098009C00A000A400A800AC00FFFFFFFFF6
:10222000FFFFFFFFC000C400C80000000000000066
:102230000000000101010000010101010100000096
:10224000010101000101010101010101010101017F
:102250000101000000000101010000000000000079
:102260000101010000010101010101000001010162
:102270000001010101010101010101010101010050
:102280000000000101010000000000000001010148
:102290000000010101010100000001010100010134
:1022A0000101010101010101010101010000000022
:1022B0000101010000000000000001010100000117
:1022C0000101010100000001010100010101010102
:1022D00001010101010101010100000000010101F2
:1022E00000000000000000010101000001010101E7
:1022F00001000000010101000101010101010101D2
:1023000001010101010100000000010101000000C4
:1023100000000000000000000000000000000000BD
:1023200000000000000000000000000000000000AD
:10233000000001000000000000000000000000009C
:102340000001010100000101010101000000010183
:10235000010001010101010101010101010101016E
:10236000000000000101010000000000000000006A
:102370000100000100000000000100010000000059
:10238000000000000000000000000000010000004C
:10239000000001010000000000000000000100003A
:1023A0000101010101000000010101000101010121
:1023B0000101010101010101010100000000010111
:1023C0000100000000000000010100000001010107
:1023D00001010000000101010001010101010101F1
:1023E00001010101010101000000000101010000E3
:1023F00000000000000000000000000000000000DD
:1024000000000000000000000000000000000000CC
:1024100000000000000000000000000000000000BC
:1024200000000000000000000000000000000000AC
:10243000000000000000000000000000000000009C
:10244000000000000000000000000000000000018B
:102450000101000000010101010000000101010073
:10246000010101010101010101010101010100005E
:102470000000010101000000000000000101010056
:102480000000000000000000000101010001010146
:102490000101010101010101010101000000000130
:1024A0000101000000000000000101010000000027
:1024B0000000000000000101010001010101010113
:1024C0000101010101010101000000000101010001
:1024D00000000000000001010100000000000000F9
:1024E00000000001010100010101010101010101E0
:1024F00001010101010000000001010100000000D4
:1025000000000001010100000000000000000000C8
:1025100001010100010101010101010101010101AC
:102520000101000000000101010000001B00181162
:102530002D00000000001B0020112D0000000000F5
:10254000150060142D00000000001A0000122D007C
:10255000000000001B0000112D00000000001B0007
:1025600028112D0000000000150038152D00000076
:1025700000001B0010112D00000000001500401489
:102580002D00000000001500301415007814000024
:1025900015002014180000000B002D000000190089
:1025A00000000000150010142D00000000001A00AB
:1025B00010122D00000000001B0008112D0000006B
:1025C00000001A0018122D00000000001500181459
:1025D0001C0000000000150048142D000000000041
:1025E000150000142D00000000001A0008122D0034
:1025F00000000000150030162D000000000015003E
:1026000000162D0000000000150068142D000000C9
:102610000000150030152D000000000015003814D2
:102620001E0000280000150008141600001300000A
:10263000150018151F00002700001500281620009F
:1026400000260000150020152D00000000001500D8
:1026500028152D0000000000150018162D000000A0
:102660000000150020162D000000000015000815C0
:102670002100002500001500101522000024000094
:102680001500081623000023000015001016240072
:102690000022000015002814120000180000150088
:1026A000701414000019000015000015110000003E
:1026B000000000002E2E2F7372632F6C7063313870
:0C26C00078785F756172742E6300000072
:1026CC000A0D204E475820546563686E6F6C6F6717
:1026DC00696573200A0D09202D094D4355204C5076
:1026EC004331387878202D2041524D20436F72743D
:1026FC0065782D4D33200A0D09202D095541525472
:10270C0030202D203936303020627073200A0D09AC
:10271C00202D0950726573732045534320746F202C
:10272C0065786974200A0D09202D09507265737340
:10273C002027722720746F207072696E7420776561
:10274C006C636F6D652073637265656E206D656E6D
:10275C007520616761696E200A0D09202D200955CD
:10276C0041525420696E74657272757074206D6F6D
:10277C0064652064656D6F207573696E672072697E
:10278C006E6720627566666572200A0D0000000097
:10279C000A0D554152542064656D6F207465726D3D
:1027AC00696E61746564210A0D0000000000000070
:1027BC00001BB7000000000000000000000000003B
:1027CC00000000000000000000389C1C000000000D
:1027DC0000000000000000000000000000000000ED
:1027EC0000000000000000000000000000000000DD
:0427FC00001BB70007
:04000005100001B135
:00000001FF
